{
  "_format": "hh-sol-artifact-1",
  "contractName": "ConcertFactory",
  "sourceName": "contracts/ConcertFactory.sol",
  "abi": [
    {
      "inputs": [
        {
          "internalType": "address",
          "name": "concertAddress",
          "type": "address"
        }
      ],
      "stateMutability": "nonpayable",
      "type": "constructor"
    },
    {
      "inputs": [],
      "name": "FailedDeployment",
      "type": "error"
    },
    {
      "inputs": [
        {
          "internalType": "uint256",
          "name": "balance",
          "type": "uint256"
        },
        {
          "internalType": "uint256",
          "name": "needed",
          "type": "uint256"
        }
      ],
      "name": "InsufficientBalance",
      "type": "error"
    },
    {
      "anonymous": false,
      "inputs": [
        {
          "indexed": false,
          "internalType": "address",
          "name": "concertAddress",
          "type": "address"
        },
        {
          "indexed": false,
          "internalType": "uint256",
          "name": "date",
          "type": "uint256"
        },
        {
          "indexed": false,
          "internalType": "string",
          "name": "name",
          "type": "string"
        },
        {
          "indexed": false,
          "internalType": "uint256",
          "name": "price",
          "type": "uint256"
        },
        {
          "indexed": false,
          "internalType": "uint256",
          "name": "totalTickets",
          "type": "uint256"
        }
      ],
      "name": "ConcertCreated",
      "type": "event"
    },
    {
      "inputs": [
        {
          "internalType": "string",
          "name": "_name",
          "type": "string"
        },
        {
          "internalType": "string",
          "name": "_uri",
          "type": "string"
        },
        {
          "internalType": "uint256",
          "name": "_date",
          "type": "uint256"
        },
        {
          "internalType": "uint256",
          "name": "_price",
          "type": "uint256"
        },
        {
          "internalType": "uint256",
          "name": "_totalTickets",
          "type": "uint256"
        }
      ],
      "name": "createConcert",
      "outputs": [],
      "stateMutability": "nonpayable",
      "type": "function"
    }
  ],
  "bytecode": "0x60a0604052348015600f57600080fd5b50604051610520380380610520833981016040819052602c91603c565b6001600160a01b0316608052606a565b600060208284031215604d57600080fd5b81516001600160a01b0381168114606357600080fd5b9392505050565b60805161049c6100846000396000604c015261049c6000f3fe608060405234801561001057600080fd5b506004361061002b5760003560e01c80632607e8b114610030575b600080fd5b61004361003e3660046102f2565b610045565b005b60006100707f0000000000000000000000000000000000000000000000000000000000000000610148565b6040517fa650752700000000000000000000000000000000000000000000000000000000815290915073ffffffffffffffffffffffffffffffffffffffff82169063a6507527906100cf908990899089908990899033906004016103bc565b600060405180830381600087803b1580156100e957600080fd5b505af11580156100fd573d6000803e3d6000fd5b505050507f25dd9cfdbae6dee8121651b1e1952a1cde71d6e8eff3530f55caf749f524a5c5818588868660405161013895949392919061041d565b60405180910390a1505050505050565b600061015582600061015b565b92915050565b6000814710156101a4576040517fcf4791810000000000000000000000000000000000000000000000000000000081524760048201526024810183905260440160405180910390fd5b763d602d80600a3d3981f3363d3d373d3d3d363d730000008360601b60e81c176000526e5af43d82803e903d91602b57fd5bf38360781b176020526037600983f0905073ffffffffffffffffffffffffffffffffffffffff8116610155576040517fb06ebf3d00000000000000000000000000000000000000000000000000000000815260040160405180910390fd5b7f4e487b7100000000000000000000000000000000000000000000000000000000600052604160045260246000fd5b600082601f83011261027457600080fd5b813567ffffffffffffffff81111561028e5761028e610234565b604051601f8201601f19908116603f0116810167ffffffffffffffff811182821017156102bd576102bd610234565b6040528181528382016020018510156102d557600080fd5b816020850160208301376000918101602001919091529392505050565b600080600080600060a0868803121561030a57600080fd5b853567ffffffffffffffff81111561032157600080fd5b61032d88828901610263565b955050602086013567ffffffffffffffff81111561034a57600080fd5b61035688828901610263565b959895975050505060408401359360608101359360809091013592509050565b6000815180845260005b8181101561039c57602081850181015186830182015201610380565b506000602082860101526020601f19601f83011685010191505092915050565b60c0815260006103cf60c0830189610376565b82810360208401526103e18189610376565b91505085604083015284606083015283608083015273ffffffffffffffffffffffffffffffffffffffff831660a0830152979650505050505050565b73ffffffffffffffffffffffffffffffffffffffff8616815284602082015260a06040820152600061045260a0830186610376565b60608301949094525060800152939250505056fea2646970667358221220adae8039866c6bc101f5d1e9b80585d6ed978ef81ee1e998ad458ec332d8308b64736f6c634300081d0033",
  "linkReferences": {},
  "deployedLinkReferences": {}
}