{
  "_format": "hh-sol-artifact-1",
  "contractName": "Concert",
  "sourceName": "contracts/Concert.sol",
  "abi": [
    {
      "inputs": [],
      "stateMutability": "nonpayable",
      "type": "constructor"
    },
    {
      "inputs": [
        {
          "internalType": "address",
          "name": "sender",
          "type": "address"
        },
        {
          "internalType": "uint256",
          "name": "balance",
          "type": "uint256"
        },
        {
          "internalType": "uint256",
          "name": "needed",
          "type": "uint256"
        },
        {
          "internalType": "uint256",
          "name": "tokenId",
          "type": "uint256"
        }
      ],
      "name": "ERC1155InsufficientBalance",
      "type": "error"
    },
    {
      "inputs": [
        {
          "internalType": "address",
          "name": "approver",
          "type": "address"
        }
      ],
      "name": "ERC1155InvalidApprover",
      "type": "error"
    },
    {
      "inputs": [
        {
          "internalType": "uint256",
          "name": "idsLength",
          "type": "uint256"
        },
        {
          "internalType": "uint256",
          "name": "valuesLength",
          "type": "uint256"
        }
      ],
      "name": "ERC1155InvalidArrayLength",
      "type": "error"
    },
    {
      "inputs": [
        {
          "internalType": "address",
          "name": "operator",
          "type": "address"
        }
      ],
      "name": "ERC1155InvalidOperator",
      "type": "error"
    },
    {
      "inputs": [
        {
          "internalType": "address",
          "name": "receiver",
          "type": "address"
        }
      ],
      "name": "ERC1155InvalidReceiver",
      "type": "error"
    },
    {
      "inputs": [
        {
          "internalType": "address",
          "name": "sender",
          "type": "address"
        }
      ],
      "name": "ERC1155InvalidSender",
      "type": "error"
    },
    {
      "inputs": [
        {
          "internalType": "address",
          "name": "operator",
          "type": "address"
        },
        {
          "internalType": "address",
          "name": "owner",
          "type": "address"
        }
      ],
      "name": "ERC1155MissingApprovalForAll",
      "type": "error"
    },
    {
      "inputs": [
        {
          "internalType": "address",
          "name": "owner",
          "type": "address"
        }
      ],
      "name": "OwnableInvalidOwner",
      "type": "error"
    },
    {
      "inputs": [
        {
          "internalType": "address",
          "name": "account",
          "type": "address"
        }
      ],
      "name": "OwnableUnauthorizedAccount",
      "type": "error"
    },
    {
      "anonymous": false,
      "inputs": [
        {
          "indexed": true,
          "internalType": "address",
          "name": "account",
          "type": "address"
        },
        {
          "indexed": true,
          "internalType": "address",
          "name": "operator",
          "type": "address"
        },
        {
          "indexed": false,
          "internalType": "bool",
          "name": "approved",
          "type": "bool"
        }
      ],
      "name": "ApprovalForAll",
      "type": "event"
    },
    {
      "anonymous": false,
      "inputs": [
        {
          "indexed": false,
          "internalType": "string",
          "name": "name",
          "type": "string"
        },
        {
          "indexed": false,
          "internalType": "uint256",
          "name": "date",
          "type": "uint256"
        },
        {
          "indexed": false,
          "internalType": "uint256",
          "name": "price",
          "type": "uint256"
        },
        {
          "indexed": false,
          "internalType": "uint256",
          "name": "totalTickets",
          "type": "uint256"
        }
      ],
      "name": "ConcertInfo",
      "type": "event"
    },
    {
      "anonymous": false,
      "inputs": [
        {
          "indexed": true,
          "internalType": "address",
          "name": "previousOwner",
          "type": "address"
        },
        {
          "indexed": true,
          "internalType": "address",
          "name": "newOwner",
          "type": "address"
        }
      ],
      "name": "OwnershipTransferred",
      "type": "event"
    },
    {
      "anonymous": false,
      "inputs": [
        {
          "indexed": true,
          "internalType": "address",
          "name": "operator",
          "type": "address"
        },
        {
          "indexed": true,
          "internalType": "address",
          "name": "from",
          "type": "address"
        },
        {
          "indexed": true,
          "internalType": "address",
          "name": "to",
          "type": "address"
        },
        {
          "indexed": false,
          "internalType": "uint256[]",
          "name": "ids",
          "type": "uint256[]"
        },
        {
          "indexed": false,
          "internalType": "uint256[]",
          "name": "values",
          "type": "uint256[]"
        }
      ],
      "name": "TransferBatch",
      "type": "event"
    },
    {
      "anonymous": false,
      "inputs": [
        {
          "indexed": true,
          "internalType": "address",
          "name": "operator",
          "type": "address"
        },
        {
          "indexed": true,
          "internalType": "address",
          "name": "from",
          "type": "address"
        },
        {
          "indexed": true,
          "internalType": "address",
          "name": "to",
          "type": "address"
        },
        {
          "indexed": false,
          "internalType": "uint256",
          "name": "id",
          "type": "uint256"
        },
        {
          "indexed": false,
          "internalType": "uint256",
          "name": "value",
          "type": "uint256"
        }
      ],
      "name": "TransferSingle",
      "type": "event"
    },
    {
      "anonymous": false,
      "inputs": [
        {
          "indexed": false,
          "internalType": "string",
          "name": "value",
          "type": "string"
        },
        {
          "indexed": true,
          "internalType": "uint256",
          "name": "id",
          "type": "uint256"
        }
      ],
      "name": "URI",
      "type": "event"
    },
    {
      "inputs": [],
      "name": "STANDARD",
      "outputs": [
        {
          "internalType": "uint256",
          "name": "",
          "type": "uint256"
        }
      ],
      "stateMutability": "view",
      "type": "function"
    },
    {
      "inputs": [
        {
          "internalType": "address",
          "name": "account",
          "type": "address"
        },
        {
          "internalType": "uint256",
          "name": "id",
          "type": "uint256"
        }
      ],
      "name": "balanceOf",
      "outputs": [
        {
          "internalType": "uint256",
          "name": "",
          "type": "uint256"
        }
      ],
      "stateMutability": "view",
      "type": "function"
    },
    {
      "inputs": [
        {
          "internalType": "address[]",
          "name": "accounts",
          "type": "address[]"
        },
        {
          "internalType": "uint256[]",
          "name": "ids",
          "type": "uint256[]"
        }
      ],
      "name": "balanceOfBatch",
      "outputs": [
        {
          "internalType": "uint256[]",
          "name": "",
          "type": "uint256[]"
        }
      ],
      "stateMutability": "view",
      "type": "function"
    },
    {
      "inputs": [],
      "name": "getOwner",
      "outputs": [
        {
          "internalType": "address",
          "name": "",
          "type": "address"
        }
      ],
      "stateMutability": "view",
      "type": "function"
    },
    {
      "inputs": [
        {
          "internalType": "string",
          "name": "_name",
          "type": "string"
        },
        {
          "internalType": "string",
          "name": "_uri",
          "type": "string"
        },
        {
          "internalType": "uint256",
          "name": "_date",
          "type": "uint256"
        },
        {
          "internalType": "uint256",
          "name": "_price",
          "type": "uint256"
        },
        {
          "internalType": "uint256",
          "name": "_totalTickets",
          "type": "uint256"
        },
        {
          "internalType": "address",
          "name": "_owner",
          "type": "address"
        }
      ],
      "name": "initialize",
      "outputs": [],
      "stateMutability": "nonpayable",
      "type": "function"
    },
    {
      "inputs": [
        {
          "internalType": "address",
          "name": "account",
          "type": "address"
        },
        {
          "internalType": "address",
          "name": "operator",
          "type": "address"
        }
      ],
      "name": "isApprovedForAll",
      "outputs": [
        {
          "internalType": "bool",
          "name": "",
          "type": "bool"
        }
      ],
      "stateMutability": "view",
      "type": "function"
    },
    {
      "inputs": [],
      "name": "owner",
      "outputs": [
        {
          "internalType": "address",
          "name": "",
          "type": "address"
        }
      ],
      "stateMutability": "view",
      "type": "function"
    },
    {
      "inputs": [],
      "name": "renounceOwnership",
      "outputs": [],
      "stateMutability": "nonpayable",
      "type": "function"
    },
    {
      "inputs": [
        {
          "internalType": "address",
          "name": "from",
          "type": "address"
        },
        {
          "internalType": "address",
          "name": "to",
          "type": "address"
        },
        {
          "internalType": "uint256[]",
          "name": "ids",
          "type": "uint256[]"
        },
        {
          "internalType": "uint256[]",
          "name": "values",
          "type": "uint256[]"
        },
        {
          "internalType": "bytes",
          "name": "data",
          "type": "bytes"
        }
      ],
      "name": "safeBatchTransferFrom",
      "outputs": [],
      "stateMutability": "nonpayable",
      "type": "function"
    },
    {
      "inputs": [
        {
          "internalType": "address",
          "name": "from",
          "type": "address"
        },
        {
          "internalType": "address",
          "name": "to",
          "type": "address"
        },
        {
          "internalType": "uint256",
          "name": "id",
          "type": "uint256"
        },
        {
          "internalType": "uint256",
          "name": "value",
          "type": "uint256"
        },
        {
          "internalType": "bytes",
          "name": "data",
          "type": "bytes"
        }
      ],
      "name": "safeTransferFrom",
      "outputs": [],
      "stateMutability": "nonpayable",
      "type": "function"
    },
    {
      "inputs": [
        {
          "internalType": "address",
          "name": "operator",
          "type": "address"
        },
        {
          "internalType": "bool",
          "name": "approved",
          "type": "bool"
        }
      ],
      "name": "setApprovalForAll",
      "outputs": [],
      "stateMutability": "nonpayable",
      "type": "function"
    },
    {
      "inputs": [
        {
          "internalType": "bytes4",
          "name": "interfaceId",
          "type": "bytes4"
        }
      ],
      "name": "supportsInterface",
      "outputs": [
        {
          "internalType": "bool",
          "name": "",
          "type": "bool"
        }
      ],
      "stateMutability": "view",
      "type": "function"
    },
    {
      "inputs": [],
      "name": "ticketsSold",
      "outputs": [
        {
          "internalType": "uint256",
          "name": "",
          "type": "uint256"
        }
      ],
      "stateMutability": "view",
      "type": "function"
    },
    {
      "inputs": [
        {
          "internalType": "address",
          "name": "newOwner",
          "type": "address"
        }
      ],
      "name": "transferOwnership",
      "outputs": [],
      "stateMutability": "nonpayable",
      "type": "function"
    },
    {
      "inputs": [
        {
          "internalType": "uint256",
          "name": "",
          "type": "uint256"
        }
      ],
      "name": "uri",
      "outputs": [
        {
          "internalType": "string",
          "name": "",
          "type": "string"
        }
      ],
      "stateMutability": "view",
      "type": "function"
    }
  ],
  "bytecode": "0x608060405234801561001057600080fd5b50604080516020810190915260008152339061002b81610069565b506001600160a01b03811661005a57604051631e4fbdf760e01b81526000600482015260240160405180910390fd5b61006381610079565b50610228565b6002610075828261016a565b5050565b600380546001600160a01b038381166001600160a01b0319831681179093556040519116919082907f8be0079c531659141344cd1fd0a4f28419497f9722a3daafe3b4186f6b6457e090600090a35050565b634e487b7160e01b600052604160045260246000fd5b600181811c908216806100f557607f821691505b60208210810361011557634e487b7160e01b600052602260045260246000fd5b50919050565b601f82111561016557806000526020600020601f840160051c810160208510156101425750805b601f840160051c820191505b81811015610162576000815560010161014e565b50505b505050565b81516001600160401b03811115610183576101836100cb565b6101978161019184546100e1565b8461011b565b6020601f8211600181146101cb57600083156101b35750848201515b600019600385901b1c1916600184901b178455610162565b600084815260208120601f198516915b828110156101fb57878501518255602094850194600190920191016101db565b50848210156102195786840151600019600387901b60f8161c191681555b50505050600190811b01905550565b611856806102376000396000f3fe608060405234801561001057600080fd5b50600436106100f45760003560e01c80638da5cb5b11610097578063bcaedade11610066578063bcaedade146101ff578063e985e9c514610207578063f242432a14610243578063f2fde38b1461025657600080fd5b80638da5cb5b146101bf5780638f15024f146101d0578063a22cb465146101d9578063a6507527146101ec57600080fd5b80632eb2c2d6116100d35780632eb2c2d6146101625780634e1273f414610177578063715018a614610197578063893d20e81461019f57600080fd5b8062fdd58e146100f957806301ffc9a71461011f5780630e89341c14610142575b600080fd5b61010c610107366004611014565b610269565b6040519081526020015b60405180910390f35b61013261012d366004611054565b610291565b6040519015158152602001610116565b610155610150366004611078565b61032c565b60405161011691906110d7565b610175610170366004611239565b6103c0565b005b61018a6101853660046112ef565b61044b565b60405161011691906113f4565b610175610518565b6101a761052c565b6040516001600160a01b039091168152602001610116565b6003546001600160a01b03166101a7565b61010c60065481565b6101756101e7366004611407565b610545565b6101756101fa366004611443565b610554565b61010c600081565b6101326102153660046114d8565b6001600160a01b03918216600090815260016020908152604080832093909416825291909152205460ff1690565b61017561025136600461150b565b61079a565b610175610264366004611564565b610818565b6000818152602081815260408083206001600160a01b03861684529091529020545b92915050565b60006001600160e01b031982167fd9b67a260000000000000000000000000000000000000000000000000000000014806102f457506001600160e01b031982167f0e89341c00000000000000000000000000000000000000000000000000000000145b8061028b57507f01ffc9a7000000000000000000000000000000000000000000000000000000006001600160e01b031983161461028b565b60606002805461033b9061157f565b80601f01602080910402602001604051908101604052809291908181526020018280546103679061157f565b80156103b45780601f10610389576101008083540402835291602001916103b4565b820191906000526020600020905b81548152906001019060200180831161039757829003601f168201915b50505050509050919050565b336001600160a01b038616811480159061040057506001600160a01b0380871660009081526001602090815260408083209385168352929052205460ff16155b156104365760405163711bec9160e11b81526001600160a01b038083166004830152871660248201526044015b60405180910390fd5b610443868686868661086f565b505050505050565b6060815183511461047c5781518351604051635b05999160e01b81526004810192909252602482015260440161042d565b6000835167ffffffffffffffff811115610498576104986110ea565b6040519080825280602002602001820160405280156104c1578160200160208202803683370190505b50905060005b8451811015610510576020808202860101516104eb90602080840287010151610269565b8282815181106104fd576104fd6115b9565b60209081029190910101526001016104c7565b509392505050565b6105206108d6565b61052a600061091c565b565b60006105406003546001600160a01b031690565b905090565b610550338383610986565b5050565b6105926040518060400160405280601d81526020017f436f6e636572743a20496e697469616c697a696e6720636f6e63657274000000815250610a36565b60075460ff16156105ff576040517f08c379a000000000000000000000000000000000000000000000000000000000815260206004820152601360248201527f416c726561647920696e697469616c697a656400000000000000000000000000604482015260640161042d565b61063d6040518060400160405280601881526020017f436f6e636572743a204e6f7420696e697469616c697a65640000000000000000815250610a36565b6007805460ff191660011790556004839055600582905560408051808201909152601481527f436f6e636572743a2053657474696e6720555249000000000000000000000000602082015261069190610a36565b61069a85610aa7565b6106d86040518060400160405280601f81526020017f436f6e636572743a205472616e7366657272696e67206f776e65727368697000815250610a36565b6106e18161091c565b61071f6040518060400160405280601481526020017f436f6e636572743a207472616e73666572726564000000000000000000000000815250610a36565b7f650b9974a8b1932da2176732a9444e9536ab37aaa7e9c39ad1b1e86d1a4310648685858560405161075494939291906115cf565b60405180910390a16104436040518060400160405280601081526020017f436f6e636572743a20656d697474656400000000000000000000000000000000815250610a36565b336001600160a01b03861681148015906107da57506001600160a01b0380871660009081526001602090815260408083209385168352929052205460ff16155b1561080b5760405163711bec9160e11b81526001600160a01b0380831660048301528716602482015260440161042d565b6104438686868686610ab3565b6108206108d6565b6001600160a01b038116610863576040517f1e4fbdf70000000000000000000000000000000000000000000000000000000081526000600482015260240161042d565b61086c8161091c565b50565b6001600160a01b03841661089957604051632bfa23e760e11b81526000600482015260240161042d565b6001600160a01b0385166108c257604051626a0d4560e21b81526000600482015260240161042d565b6108cf8585858585610b41565b5050505050565b6003546001600160a01b0316331461052a576040517f118cdaa700000000000000000000000000000000000000000000000000000000815233600482015260240161042d565b600380546001600160a01b038381167fffffffffffffffffffffffff0000000000000000000000000000000000000000831681179093556040519116919082907f8be0079c531659141344cd1fd0a4f28419497f9722a3daafe3b4186f6b6457e090600090a35050565b6001600160a01b0382166109c9576040517fced3e1000000000000000000000000000000000000000000000000000000000081526000600482015260240161042d565b6001600160a01b03838116600081815260016020908152604080832094871680845294825291829020805460ff191686151590811790915591519182527f17307eab39ab6107e8899845ad3d59bd9653f200f220920489ca2b5937696c31910160405180910390a3505050565b61086c81604051602401610a4a91906110d7565b60408051601f198184030181529190526020810180517bffffffffffffffffffffffffffffffffffffffffffffffffffffffff167f41304fac00000000000000000000000000000000000000000000000000000000179052610b94565b6002610550828261164a565b6001600160a01b038416610add57604051632bfa23e760e11b81526000600482015260240161042d565b6001600160a01b038516610b0657604051626a0d4560e21b81526000600482015260240161042d565b60408051600180825260208201869052818301908152606082018590526080820190925290610b388787848487610b41565b50505050505050565b610b4d85858585610b9d565b6001600160a01b038416156108cf5782513390600103610b865760208481015190840151610b7f838989858589610dca565b5050610443565b610443818787878787610eee565b61086c81610fd7565b8051825114610bcc5781518151604051635b05999160e01b81526004810192909252602482015260440161042d565b3360005b8351811015610ceb576020818102858101820151908501909101516001600160a01b03881615610c9c576000828152602081815260408083206001600160a01b038c16845290915290205481811015610c75576040517f03dee4c50000000000000000000000000000000000000000000000000000000081526001600160a01b038a16600482015260248101829052604481018390526064810184905260840161042d565b6000838152602081815260408083206001600160a01b038d16845290915290209082900390555b6001600160a01b03871615610ce1576000828152602081815260408083206001600160a01b038b16845290915281208054839290610cdb908490611709565b90915550505b5050600101610bd0565b508251600103610d6c5760208301516000906020840151909150856001600160a01b0316876001600160a01b0316846001600160a01b03167fc3d58168c5ae7397731d063d5bbf3d657854427343f4c083240f7aacaa2d0f628585604051610d5d929190918252602082015260400190565b60405180910390a450506108cf565b836001600160a01b0316856001600160a01b0316826001600160a01b03167f4a39dc06d4c0dbc64b70af90fd698a233a518aa5d07e595d983b8c0526c8f7fb8686604051610dbb92919061172a565b60405180910390a45050505050565b6001600160a01b0384163b156104435760405163f23a6e6160e01b81526001600160a01b0385169063f23a6e6190610e0e9089908990889088908890600401611758565b6020604051808303816000875af1925050508015610e49575060408051601f3d908101601f19168201909252610e46918101906117a0565b60015b610eb2573d808015610e77576040519150601f19603f3d011682016040523d82523d6000602084013e610e7c565b606091505b508051600003610eaa57604051632bfa23e760e11b81526001600160a01b038616600482015260240161042d565b805181602001fd5b6001600160e01b0319811663f23a6e6160e01b14610b3857604051632bfa23e760e11b81526001600160a01b038616600482015260240161042d565b6001600160a01b0384163b156104435760405163bc197c8160e01b81526001600160a01b0385169063bc197c8190610f3290899089908890889088906004016117bd565b6020604051808303816000875af1925050508015610f6d575060408051601f3d908101601f19168201909252610f6a918101906117a0565b60015b610f9b573d808015610e77576040519150601f19603f3d011682016040523d82523d6000602084013e610e7c565b6001600160e01b0319811663bc197c8160e01b14610b3857604051632bfa23e760e11b81526001600160a01b038616600482015260240161042d565b60006a636f6e736f6c652e6c6f679050600080835160208501845afa505050565b80356001600160a01b038116811461100f57600080fd5b919050565b6000806040838503121561102757600080fd5b61103083610ff8565b946020939093013593505050565b6001600160e01b03198116811461086c57600080fd5b60006020828403121561106657600080fd5b81356110718161103e565b9392505050565b60006020828403121561108a57600080fd5b5035919050565b6000815180845260005b818110156110b75760208185018101518683018201520161109b565b506000602082860101526020601f19601f83011685010191505092915050565b6020815260006110716020830184611091565b634e487b7160e01b600052604160045260246000fd5b604051601f8201601f1916810167ffffffffffffffff81118282101715611129576111296110ea565b604052919050565b600067ffffffffffffffff82111561114b5761114b6110ea565b5060051b60200190565b600082601f83011261116657600080fd5b813561117961117482611131565b611100565b8082825260208201915060208360051b86010192508583111561119b57600080fd5b602085015b838110156111b85780358352602092830192016111a0565b5095945050505050565b600082601f8301126111d357600080fd5b81356020830160008067ffffffffffffffff8411156111f4576111f46110ea565b50601f8301601f191660200161120981611100565b91505082815285838301111561121e57600080fd5b82826020830137600092810160200192909252509392505050565b600080600080600060a0868803121561125157600080fd5b61125a86610ff8565b945061126860208701610ff8565b9350604086013567ffffffffffffffff81111561128457600080fd5b61129088828901611155565b935050606086013567ffffffffffffffff8111156112ad57600080fd5b6112b988828901611155565b925050608086013567ffffffffffffffff8111156112d657600080fd5b6112e2888289016111c2565b9150509295509295909350565b6000806040838503121561130257600080fd5b823567ffffffffffffffff81111561131957600080fd5b8301601f8101851361132a57600080fd5b803561133861117482611131565b8082825260208201915060208360051b85010192508783111561135a57600080fd5b6020840193505b828410156113835761137284610ff8565b825260209384019390910190611361565b9450505050602083013567ffffffffffffffff8111156113a257600080fd5b6113ae85828601611155565b9150509250929050565b600081518084526020840193506020830160005b828110156113ea5781518652602095860195909101906001016113cc565b5093949350505050565b60208152600061107160208301846113b8565b6000806040838503121561141a57600080fd5b61142383610ff8565b91506020830135801515811461143857600080fd5b809150509250929050565b60008060008060008060c0878903121561145c57600080fd5b863567ffffffffffffffff81111561147357600080fd5b61147f89828a016111c2565b965050602087013567ffffffffffffffff81111561149c57600080fd5b6114a889828a016111c2565b9550506040870135935060608701359250608087013591506114cc60a08801610ff8565b90509295509295509295565b600080604083850312156114eb57600080fd5b6114f483610ff8565b915061150260208401610ff8565b90509250929050565b600080600080600060a0868803121561152357600080fd5b61152c86610ff8565b945061153a60208701610ff8565b93506040860135925060608601359150608086013567ffffffffffffffff8111156112d657600080fd5b60006020828403121561157657600080fd5b61107182610ff8565b600181811c9082168061159357607f821691505b6020821081036115b357634e487b7160e01b600052602260045260246000fd5b50919050565b634e487b7160e01b600052603260045260246000fd5b6080815260006115e26080830187611091565b6020830195909552506040810192909252606090910152919050565b601f82111561164557806000526020600020601f840160051c810160208510156116255750805b601f840160051c820191505b818110156108cf5760008155600101611631565b505050565b815167ffffffffffffffff811115611664576116646110ea565b61167881611672845461157f565b846115fe565b6020601f8211600181146116ac57600083156116945750848201515b600019600385901b1c1916600184901b1784556108cf565b600084815260208120601f198516915b828110156116dc57878501518255602094850194600190920191016116bc565b50848210156116fa5786840151600019600387901b60f8161c191681555b50505050600190811b01905550565b8082018082111561028b57634e487b7160e01b600052601160045260246000fd5b60408152600061173d60408301856113b8565b828103602084015261174f81856113b8565b95945050505050565b6001600160a01b03861681526001600160a01b038516602082015283604082015282606082015260a06080820152600061179560a0830184611091565b979650505050505050565b6000602082840312156117b257600080fd5b81516110718161103e565b6001600160a01b03861681526001600160a01b038516602082015260a0604082015260006117ee60a08301866113b8565b828103606084015261180081866113b8565b905082810360808401526118148185611091565b9897505050505050505056fea264697066735822122060e1585c85f34f67c652bcb016d335649f6fb484f841483afaeb788ab669363164736f6c634300081d0033",
  "linkReferences": {},
  "deployedLinkReferences": {}
}