{
  "_format": "hh-sol-artifact-1",
  "contractName": "ConcertFactory",
  "sourceName": "contracts/ConcertFactory.sol",
  "abi": [
    {
      "inputs": [
        {
          "internalType": "address",
          "name": "concertAddress",
          "type": "address"
        }
      ],
      "stateMutability": "nonpayable",
      "type": "constructor"
    },
    {
      "inputs": [],
      "name": "FailedDeployment",
      "type": "error"
    },
    {
      "inputs": [
        {
          "internalType": "uint256",
          "name": "balance",
          "type": "uint256"
        },
        {
          "internalType": "uint256",
          "name": "needed",
          "type": "uint256"
        }
      ],
      "name": "InsufficientBalance",
      "type": "error"
    },
    {
      "anonymous": false,
      "inputs": [
        {
          "indexed": false,
          "internalType": "address",
          "name": "concertAddress",
          "type": "address"
        },
        {
          "indexed": true,
          "internalType": "uint256",
          "name": "date",
          "type": "uint256"
        },
        {
          "indexed": true,
          "internalType": "string",
          "name": "name",
          "type": "string"
        },
        {
          "indexed": false,
          "internalType": "uint256",
          "name": "price",
          "type": "uint256"
        },
        {
          "indexed": false,
          "internalType": "uint256",
          "name": "totalTickets",
          "type": "uint256"
        }
      ],
      "name": "ConcertCreated",
      "type": "event"
    },
    {
      "inputs": [
        {
          "internalType": "string",
          "name": "_name",
          "type": "string"
        },
        {
          "internalType": "string",
          "name": "_uri",
          "type": "string"
        },
        {
          "internalType": "uint256",
          "name": "_date",
          "type": "uint256"
        },
        {
          "internalType": "uint256",
          "name": "_price",
          "type": "uint256"
        },
        {
          "internalType": "uint256",
          "name": "_totalTickets",
          "type": "uint256"
        }
      ],
      "name": "createConcert",
      "outputs": [],
      "stateMutability": "nonpayable",
      "type": "function"
    }
  ],
  "bytecode": "0x60a0604052348015600f57600080fd5b506040516106db3803806106db833981016040819052602c91603c565b6001600160a01b0316608052606a565b600060208284031215604d57600080fd5b81516001600160a01b0381168114606357600080fd5b9392505050565b6080516106576100846000396000608a01526106576000f3fe608060405234801561001057600080fd5b506004361061002b5760003560e01c80632607e8b114610030575b600080fd5b61004361003e3660046104b6565b610045565b005b6100836040518060400160405280601981526020017f466163746f72793a204372656174696e6720636f6e636572740000000000000081525061026e565b60006100ae7f00000000000000000000000000000000000000000000000000000000000000006102e2565b90506100ee6040518060400160405280601881526020017f466163746f72793a20496e7374616e636520636c6f6e6564000000000000000081525061026e565b6040517fa650752700000000000000000000000000000000000000000000000000000000815273ffffffffffffffffffffffffffffffffffffffff82169063a65075279061014a9089908990899089908990339060040161058a565b600060405180830381600087803b15801561016457600080fd5b505af1158015610178573d6000803e3d6000fd5b505050506101ba6040518060400160405280601c81526020017f466163746f72793a20436f6e6365727420696e697469616c697a65640000000081525061026e565b856040516101c891906105eb565b6040805191829003822073ffffffffffffffffffffffffffffffffffffffff84168352602083018690529082018490529085907f25dd9cfdbae6dee8121651b1e1952a1cde71d6e8eff3530f55caf749f524a5c59060600160405180910390a36102666040518060400160405280601881526020017f466163746f72793a20436f6e636572742063726561746564000000000000000081525061026e565b505050505050565b6102df816040516024016102829190610607565b60408051601f198184030181529190526020810180517bffffffffffffffffffffffffffffffffffffffffffffffffffffffff167f41304fac000000000000000000000000000000000000000000000000000000001790526102f5565b50565b60006102ef8260006102fe565b92915050565b6102df816103d7565b600081471015610347576040517fcf4791810000000000000000000000000000000000000000000000000000000081524760048201526024810183905260440160405180910390fd5b763d602d80600a3d3981f3363d3d373d3d3d363d730000008360601b60e81c176000526e5af43d82803e903d91602b57fd5bf38360781b176020526037600983f0905073ffffffffffffffffffffffffffffffffffffffff81166102ef576040517fb06ebf3d00000000000000000000000000000000000000000000000000000000815260040160405180910390fd5b60006a636f6e736f6c652e6c6f679050600080835160208501845afa505050565b7f4e487b7100000000000000000000000000000000000000000000000000000000600052604160045260246000fd5b600082601f83011261043857600080fd5b813567ffffffffffffffff811115610452576104526103f8565b604051601f8201601f19908116603f0116810167ffffffffffffffff81118282101715610481576104816103f8565b60405281815283820160200185101561049957600080fd5b816020850160208301376000918101602001919091529392505050565b600080600080600060a086880312156104ce57600080fd5b853567ffffffffffffffff8111156104e557600080fd5b6104f188828901610427565b955050602086013567ffffffffffffffff81111561050e57600080fd5b61051a88828901610427565b959895975050505060408401359360608101359360809091013592509050565b60005b8381101561055557818101518382015260200161053d565b50506000910152565b6000815180845261057681602086016020860161053a565b601f01601f19169290920160200192915050565b60c08152600061059d60c083018961055e565b82810360208401526105af818961055e565b91505085604083015284606083015283608083015273ffffffffffffffffffffffffffffffffffffffff831660a0830152979650505050505050565b600082516105fd81846020870161053a565b9190910192915050565b60208152600061061a602083018461055e565b939250505056fea2646970667358221220cba9ae2d0d856384b2dec434f32eea6ef2d6a771c072f78fbe770066b16274b864736f6c634300081d0033",
  "linkReferences": {},
  "deployedLinkReferences": {}
}