{
  "_format": "hh-sol-artifact-1",
  "contractName": "Concert",
  "sourceName": "contracts/Concert.sol",
  "abi": [
    {
      "inputs": [],
      "stateMutability": "nonpayable",
      "type": "constructor"
    },
    {
      "inputs": [
        {
          "internalType": "address",
          "name": "sender",
          "type": "address"
        },
        {
          "internalType": "uint256",
          "name": "balance",
          "type": "uint256"
        },
        {
          "internalType": "uint256",
          "name": "needed",
          "type": "uint256"
        },
        {
          "internalType": "uint256",
          "name": "tokenId",
          "type": "uint256"
        }
      ],
      "name": "ERC1155InsufficientBalance",
      "type": "error"
    },
    {
      "inputs": [
        {
          "internalType": "address",
          "name": "approver",
          "type": "address"
        }
      ],
      "name": "ERC1155InvalidApprover",
      "type": "error"
    },
    {
      "inputs": [
        {
          "internalType": "uint256",
          "name": "idsLength",
          "type": "uint256"
        },
        {
          "internalType": "uint256",
          "name": "valuesLength",
          "type": "uint256"
        }
      ],
      "name": "ERC1155InvalidArrayLength",
      "type": "error"
    },
    {
      "inputs": [
        {
          "internalType": "address",
          "name": "operator",
          "type": "address"
        }
      ],
      "name": "ERC1155InvalidOperator",
      "type": "error"
    },
    {
      "inputs": [
        {
          "internalType": "address",
          "name": "receiver",
          "type": "address"
        }
      ],
      "name": "ERC1155InvalidReceiver",
      "type": "error"
    },
    {
      "inputs": [
        {
          "internalType": "address",
          "name": "sender",
          "type": "address"
        }
      ],
      "name": "ERC1155InvalidSender",
      "type": "error"
    },
    {
      "inputs": [
        {
          "internalType": "address",
          "name": "operator",
          "type": "address"
        },
        {
          "internalType": "address",
          "name": "owner",
          "type": "address"
        }
      ],
      "name": "ERC1155MissingApprovalForAll",
      "type": "error"
    },
    {
      "inputs": [
        {
          "internalType": "address",
          "name": "owner",
          "type": "address"
        }
      ],
      "name": "OwnableInvalidOwner",
      "type": "error"
    },
    {
      "inputs": [
        {
          "internalType": "address",
          "name": "account",
          "type": "address"
        }
      ],
      "name": "OwnableUnauthorizedAccount",
      "type": "error"
    },
    {
      "anonymous": false,
      "inputs": [
        {
          "indexed": true,
          "internalType": "address",
          "name": "account",
          "type": "address"
        },
        {
          "indexed": true,
          "internalType": "address",
          "name": "operator",
          "type": "address"
        },
        {
          "indexed": false,
          "internalType": "bool",
          "name": "approved",
          "type": "bool"
        }
      ],
      "name": "ApprovalForAll",
      "type": "event"
    },
    {
      "anonymous": false,
      "inputs": [
        {
          "indexed": false,
          "internalType": "string",
          "name": "name",
          "type": "string"
        },
        {
          "indexed": false,
          "internalType": "uint256",
          "name": "date",
          "type": "uint256"
        },
        {
          "indexed": false,
          "internalType": "uint256",
          "name": "price",
          "type": "uint256"
        },
        {
          "indexed": false,
          "internalType": "uint256",
          "name": "totalTickets",
          "type": "uint256"
        }
      ],
      "name": "ConcertInfo",
      "type": "event"
    },
    {
      "anonymous": false,
      "inputs": [
        {
          "indexed": true,
          "internalType": "address",
          "name": "previousOwner",
          "type": "address"
        },
        {
          "indexed": true,
          "internalType": "address",
          "name": "newOwner",
          "type": "address"
        }
      ],
      "name": "OwnershipTransferred",
      "type": "event"
    },
    {
      "anonymous": false,
      "inputs": [
        {
          "indexed": true,
          "internalType": "address",
          "name": "operator",
          "type": "address"
        },
        {
          "indexed": true,
          "internalType": "address",
          "name": "from",
          "type": "address"
        },
        {
          "indexed": true,
          "internalType": "address",
          "name": "to",
          "type": "address"
        },
        {
          "indexed": false,
          "internalType": "uint256[]",
          "name": "ids",
          "type": "uint256[]"
        },
        {
          "indexed": false,
          "internalType": "uint256[]",
          "name": "values",
          "type": "uint256[]"
        }
      ],
      "name": "TransferBatch",
      "type": "event"
    },
    {
      "anonymous": false,
      "inputs": [
        {
          "indexed": true,
          "internalType": "address",
          "name": "operator",
          "type": "address"
        },
        {
          "indexed": true,
          "internalType": "address",
          "name": "from",
          "type": "address"
        },
        {
          "indexed": true,
          "internalType": "address",
          "name": "to",
          "type": "address"
        },
        {
          "indexed": false,
          "internalType": "uint256",
          "name": "id",
          "type": "uint256"
        },
        {
          "indexed": false,
          "internalType": "uint256",
          "name": "value",
          "type": "uint256"
        }
      ],
      "name": "TransferSingle",
      "type": "event"
    },
    {
      "anonymous": false,
      "inputs": [
        {
          "indexed": false,
          "internalType": "string",
          "name": "value",
          "type": "string"
        },
        {
          "indexed": true,
          "internalType": "uint256",
          "name": "id",
          "type": "uint256"
        }
      ],
      "name": "URI",
      "type": "event"
    },
    {
      "inputs": [],
      "name": "STANDARD",
      "outputs": [
        {
          "internalType": "uint256",
          "name": "",
          "type": "uint256"
        }
      ],
      "stateMutability": "view",
      "type": "function"
    },
    {
      "inputs": [
        {
          "internalType": "address",
          "name": "account",
          "type": "address"
        },
        {
          "internalType": "uint256",
          "name": "id",
          "type": "uint256"
        }
      ],
      "name": "balanceOf",
      "outputs": [
        {
          "internalType": "uint256",
          "name": "",
          "type": "uint256"
        }
      ],
      "stateMutability": "view",
      "type": "function"
    },
    {
      "inputs": [
        {
          "internalType": "address[]",
          "name": "accounts",
          "type": "address[]"
        },
        {
          "internalType": "uint256[]",
          "name": "ids",
          "type": "uint256[]"
        }
      ],
      "name": "balanceOfBatch",
      "outputs": [
        {
          "internalType": "uint256[]",
          "name": "",
          "type": "uint256[]"
        }
      ],
      "stateMutability": "view",
      "type": "function"
    },
    {
      "inputs": [
        {
          "internalType": "string",
          "name": "_name",
          "type": "string"
        },
        {
          "internalType": "string",
          "name": "_uri",
          "type": "string"
        },
        {
          "internalType": "uint256",
          "name": "_date",
          "type": "uint256"
        },
        {
          "internalType": "uint256",
          "name": "_price",
          "type": "uint256"
        },
        {
          "internalType": "uint256",
          "name": "_totalTickets",
          "type": "uint256"
        },
        {
          "internalType": "address",
          "name": "_owner",
          "type": "address"
        }
      ],
      "name": "initialize",
      "outputs": [],
      "stateMutability": "nonpayable",
      "type": "function"
    },
    {
      "inputs": [
        {
          "internalType": "address",
          "name": "account",
          "type": "address"
        },
        {
          "internalType": "address",
          "name": "operator",
          "type": "address"
        }
      ],
      "name": "isApprovedForAll",
      "outputs": [
        {
          "internalType": "bool",
          "name": "",
          "type": "bool"
        }
      ],
      "stateMutability": "view",
      "type": "function"
    },
    {
      "inputs": [],
      "name": "owner",
      "outputs": [
        {
          "internalType": "address",
          "name": "",
          "type": "address"
        }
      ],
      "stateMutability": "view",
      "type": "function"
    },
    {
      "inputs": [],
      "name": "renounceOwnership",
      "outputs": [],
      "stateMutability": "nonpayable",
      "type": "function"
    },
    {
      "inputs": [
        {
          "internalType": "address",
          "name": "from",
          "type": "address"
        },
        {
          "internalType": "address",
          "name": "to",
          "type": "address"
        },
        {
          "internalType": "uint256[]",
          "name": "ids",
          "type": "uint256[]"
        },
        {
          "internalType": "uint256[]",
          "name": "values",
          "type": "uint256[]"
        },
        {
          "internalType": "bytes",
          "name": "data",
          "type": "bytes"
        }
      ],
      "name": "safeBatchTransferFrom",
      "outputs": [],
      "stateMutability": "nonpayable",
      "type": "function"
    },
    {
      "inputs": [
        {
          "internalType": "address",
          "name": "from",
          "type": "address"
        },
        {
          "internalType": "address",
          "name": "to",
          "type": "address"
        },
        {
          "internalType": "uint256",
          "name": "id",
          "type": "uint256"
        },
        {
          "internalType": "uint256",
          "name": "value",
          "type": "uint256"
        },
        {
          "internalType": "bytes",
          "name": "data",
          "type": "bytes"
        }
      ],
      "name": "safeTransferFrom",
      "outputs": [],
      "stateMutability": "nonpayable",
      "type": "function"
    },
    {
      "inputs": [
        {
          "internalType": "address",
          "name": "operator",
          "type": "address"
        },
        {
          "internalType": "bool",
          "name": "approved",
          "type": "bool"
        }
      ],
      "name": "setApprovalForAll",
      "outputs": [],
      "stateMutability": "nonpayable",
      "type": "function"
    },
    {
      "inputs": [
        {
          "internalType": "bytes4",
          "name": "interfaceId",
          "type": "bytes4"
        }
      ],
      "name": "supportsInterface",
      "outputs": [
        {
          "internalType": "bool",
          "name": "",
          "type": "bool"
        }
      ],
      "stateMutability": "view",
      "type": "function"
    },
    {
      "inputs": [],
      "name": "ticketsSold",
      "outputs": [
        {
          "internalType": "uint256",
          "name": "",
          "type": "uint256"
        }
      ],
      "stateMutability": "view",
      "type": "function"
    },
    {
      "inputs": [
        {
          "internalType": "address",
          "name": "newOwner",
          "type": "address"
        }
      ],
      "name": "transferOwnership",
      "outputs": [],
      "stateMutability": "nonpayable",
      "type": "function"
    },
    {
      "inputs": [
        {
          "internalType": "uint256",
          "name": "",
          "type": "uint256"
        }
      ],
      "name": "uri",
      "outputs": [
        {
          "internalType": "string",
          "name": "",
          "type": "string"
        }
      ],
      "stateMutability": "view",
      "type": "function"
    }
  ],
  "bytecode": "0x608060405234801561001057600080fd5b50604080516020810190915260008152339061002b81610069565b506001600160a01b03811661005a57604051631e4fbdf760e01b81526000600482015260240160405180910390fd5b61006381610079565b50610228565b6002610075828261016a565b5050565b600380546001600160a01b038381166001600160a01b0319831681179093556040519116919082907f8be0079c531659141344cd1fd0a4f28419497f9722a3daafe3b4186f6b6457e090600090a35050565b634e487b7160e01b600052604160045260246000fd5b600181811c908216806100f557607f821691505b60208210810361011557634e487b7160e01b600052602260045260246000fd5b50919050565b601f82111561016557806000526020600020601f840160051c810160208510156101425750805b601f840160051c820191505b81811015610162576000815560010161014e565b50505b505050565b81516001600160401b03811115610183576101836100cb565b6101978161019184546100e1565b8461011b565b6020601f8211600181146101cb57600083156101b35750848201515b600019600385901b1c1916600184901b178455610162565b600084815260208120601f198516915b828110156101fb57878501518255602094850194600190920191016101db565b50848210156102195786840151600019600387901b60f8161c191681555b50505050600190811b01905550565b611725806102376000396000f3fe608060405234801561001057600080fd5b50600436106100e95760003560e01c80638f15024f1161008c578063bcaedade11610066578063bcaedade146101de578063e985e9c5146101e6578063f242432a14610222578063f2fde38b1461023557600080fd5b80638f15024f146101af578063a22cb465146101b8578063a6507527146101cb57600080fd5b80632eb2c2d6116100c85780632eb2c2d6146101575780634e1273f41461016c578063715018a61461018c5780638da5cb5b1461019457600080fd5b8062fdd58e146100ee57806301ffc9a7146101145780630e89341c14610137575b600080fd5b6101016100fc366004610ee3565b610248565b6040519081526020015b60405180910390f35b610127610122366004610f23565b610270565b604051901515815260200161010b565b61014a610145366004610f47565b61030b565b60405161010b9190610fa6565b61016a610165366004611108565b61039f565b005b61017f61017a3660046111be565b61042a565b60405161010b91906112c3565b61016a6104f7565b6003546040516001600160a01b03909116815260200161010b565b61010160065481565b61016a6101c63660046112d6565b61050b565b61016a6101d9366004611312565b61051a565b610101600081565b6101276101f43660046113a7565b6001600160a01b03918216600090815260016020908152604080832093909416825291909152205460ff1690565b61016a6102303660046113da565b610669565b61016a610243366004611433565b6106e7565b6000818152602081815260408083206001600160a01b03861684529091529020545b92915050565b60006001600160e01b031982167fd9b67a260000000000000000000000000000000000000000000000000000000014806102d357506001600160e01b031982167f0e89341c00000000000000000000000000000000000000000000000000000000145b8061026a57507f01ffc9a7000000000000000000000000000000000000000000000000000000006001600160e01b031983161461026a565b60606002805461031a9061144e565b80601f01602080910402602001604051908101604052809291908181526020018280546103469061144e565b80156103935780601f1061036857610100808354040283529160200191610393565b820191906000526020600020905b81548152906001019060200180831161037657829003601f168201915b50505050509050919050565b336001600160a01b03861681148015906103df57506001600160a01b0380871660009081526001602090815260408083209385168352929052205460ff16155b156104155760405163711bec9160e11b81526001600160a01b038083166004830152871660248201526044015b60405180910390fd5b610422868686868661073e565b505050505050565b6060815183511461045b5781518351604051635b05999160e01b81526004810192909252602482015260440161040c565b6000835167ffffffffffffffff81111561047757610477610fb9565b6040519080825280602002602001820160405280156104a0578160200160208202803683370190505b50905060005b84518110156104ef576020808202860101516104ca90602080840287010151610248565b8282815181106104dc576104dc611488565b60209081029190910101526001016104a6565b509392505050565b6104ff6107a5565b61050960006107eb565b565b610516338383610855565b5050565b6105586040518060400160405280601d81526020017f436f6e636572743a20496e697469616c697a696e6720636f6e63657274000000815250610905565b60075460ff16156105c5576040517f08c379a000000000000000000000000000000000000000000000000000000000815260206004820152601360248201527f416c726561647920696e697469616c697a656400000000000000000000000000604482015260640161040c565b6007805460ff19166001179055600483905560058290556105e585610976565b6105ee816107eb565b7f650b9974a8b1932da2176732a9444e9536ab37aaa7e9c39ad1b1e86d1a43106486858585604051610623949392919061149e565b60405180910390a16104226040518060400160405280601081526020017f436f6e636572743a20656d697474656400000000000000000000000000000000815250610905565b336001600160a01b03861681148015906106a957506001600160a01b0380871660009081526001602090815260408083209385168352929052205460ff16155b156106da5760405163711bec9160e11b81526001600160a01b0380831660048301528716602482015260440161040c565b6104228686868686610982565b6106ef6107a5565b6001600160a01b038116610732576040517f1e4fbdf70000000000000000000000000000000000000000000000000000000081526000600482015260240161040c565b61073b816107eb565b50565b6001600160a01b03841661076857604051632bfa23e760e11b81526000600482015260240161040c565b6001600160a01b03851661079157604051626a0d4560e21b81526000600482015260240161040c565b61079e8585858585610a10565b5050505050565b6003546001600160a01b03163314610509576040517f118cdaa700000000000000000000000000000000000000000000000000000000815233600482015260240161040c565b600380546001600160a01b038381167fffffffffffffffffffffffff0000000000000000000000000000000000000000831681179093556040519116919082907f8be0079c531659141344cd1fd0a4f28419497f9722a3daafe3b4186f6b6457e090600090a35050565b6001600160a01b038216610898576040517fced3e1000000000000000000000000000000000000000000000000000000000081526000600482015260240161040c565b6001600160a01b03838116600081815260016020908152604080832094871680845294825291829020805460ff191686151590811790915591519182527f17307eab39ab6107e8899845ad3d59bd9653f200f220920489ca2b5937696c31910160405180910390a3505050565b61073b816040516024016109199190610fa6565b60408051601f198184030181529190526020810180517bffffffffffffffffffffffffffffffffffffffffffffffffffffffff167f41304fac00000000000000000000000000000000000000000000000000000000179052610a63565b60026105168282611519565b6001600160a01b0384166109ac57604051632bfa23e760e11b81526000600482015260240161040c565b6001600160a01b0385166109d557604051626a0d4560e21b81526000600482015260240161040c565b60408051600180825260208201869052818301908152606082018590526080820190925290610a078787848487610a10565b50505050505050565b610a1c85858585610a6c565b6001600160a01b0384161561079e5782513390600103610a555760208481015190840151610a4e838989858589610c99565b5050610422565b610422818787878787610dbd565b61073b81610ea6565b8051825114610a9b5781518151604051635b05999160e01b81526004810192909252602482015260440161040c565b3360005b8351811015610bba576020818102858101820151908501909101516001600160a01b03881615610b6b576000828152602081815260408083206001600160a01b038c16845290915290205481811015610b44576040517f03dee4c50000000000000000000000000000000000000000000000000000000081526001600160a01b038a16600482015260248101829052604481018390526064810184905260840161040c565b6000838152602081815260408083206001600160a01b038d16845290915290209082900390555b6001600160a01b03871615610bb0576000828152602081815260408083206001600160a01b038b16845290915281208054839290610baa9084906115d8565b90915550505b5050600101610a9f565b508251600103610c3b5760208301516000906020840151909150856001600160a01b0316876001600160a01b0316846001600160a01b03167fc3d58168c5ae7397731d063d5bbf3d657854427343f4c083240f7aacaa2d0f628585604051610c2c929190918252602082015260400190565b60405180910390a4505061079e565b836001600160a01b0316856001600160a01b0316826001600160a01b03167f4a39dc06d4c0dbc64b70af90fd698a233a518aa5d07e595d983b8c0526c8f7fb8686604051610c8a9291906115f9565b60405180910390a45050505050565b6001600160a01b0384163b156104225760405163f23a6e6160e01b81526001600160a01b0385169063f23a6e6190610cdd9089908990889088908890600401611627565b6020604051808303816000875af1925050508015610d18575060408051601f3d908101601f19168201909252610d159181019061166f565b60015b610d81573d808015610d46576040519150601f19603f3d011682016040523d82523d6000602084013e610d4b565b606091505b508051600003610d7957604051632bfa23e760e11b81526001600160a01b038616600482015260240161040c565b805181602001fd5b6001600160e01b0319811663f23a6e6160e01b14610a0757604051632bfa23e760e11b81526001600160a01b038616600482015260240161040c565b6001600160a01b0384163b156104225760405163bc197c8160e01b81526001600160a01b0385169063bc197c8190610e01908990899088908890889060040161168c565b6020604051808303816000875af1925050508015610e3c575060408051601f3d908101601f19168201909252610e399181019061166f565b60015b610e6a573d808015610d46576040519150601f19603f3d011682016040523d82523d6000602084013e610d4b565b6001600160e01b0319811663bc197c8160e01b14610a0757604051632bfa23e760e11b81526001600160a01b038616600482015260240161040c565b60006a636f6e736f6c652e6c6f679050600080835160208501845afa505050565b80356001600160a01b0381168114610ede57600080fd5b919050565b60008060408385031215610ef657600080fd5b610eff83610ec7565b946020939093013593505050565b6001600160e01b03198116811461073b57600080fd5b600060208284031215610f3557600080fd5b8135610f4081610f0d565b9392505050565b600060208284031215610f5957600080fd5b5035919050565b6000815180845260005b81811015610f8657602081850181015186830182015201610f6a565b506000602082860101526020601f19601f83011685010191505092915050565b602081526000610f406020830184610f60565b634e487b7160e01b600052604160045260246000fd5b604051601f8201601f1916810167ffffffffffffffff81118282101715610ff857610ff8610fb9565b604052919050565b600067ffffffffffffffff82111561101a5761101a610fb9565b5060051b60200190565b600082601f83011261103557600080fd5b813561104861104382611000565b610fcf565b8082825260208201915060208360051b86010192508583111561106a57600080fd5b602085015b8381101561108757803583526020928301920161106f565b5095945050505050565b600082601f8301126110a257600080fd5b81356020830160008067ffffffffffffffff8411156110c3576110c3610fb9565b50601f8301601f19166020016110d881610fcf565b9150508281528583830111156110ed57600080fd5b82826020830137600092810160200192909252509392505050565b600080600080600060a0868803121561112057600080fd5b61112986610ec7565b945061113760208701610ec7565b9350604086013567ffffffffffffffff81111561115357600080fd5b61115f88828901611024565b935050606086013567ffffffffffffffff81111561117c57600080fd5b61118888828901611024565b925050608086013567ffffffffffffffff8111156111a557600080fd5b6111b188828901611091565b9150509295509295909350565b600080604083850312156111d157600080fd5b823567ffffffffffffffff8111156111e857600080fd5b8301601f810185136111f957600080fd5b803561120761104382611000565b8082825260208201915060208360051b85010192508783111561122957600080fd5b6020840193505b828410156112525761124184610ec7565b825260209384019390910190611230565b9450505050602083013567ffffffffffffffff81111561127157600080fd5b61127d85828601611024565b9150509250929050565b600081518084526020840193506020830160005b828110156112b957815186526020958601959091019060010161129b565b5093949350505050565b602081526000610f406020830184611287565b600080604083850312156112e957600080fd5b6112f283610ec7565b91506020830135801515811461130757600080fd5b809150509250929050565b60008060008060008060c0878903121561132b57600080fd5b863567ffffffffffffffff81111561134257600080fd5b61134e89828a01611091565b965050602087013567ffffffffffffffff81111561136b57600080fd5b61137789828a01611091565b95505060408701359350606087013592506080870135915061139b60a08801610ec7565b90509295509295509295565b600080604083850312156113ba57600080fd5b6113c383610ec7565b91506113d160208401610ec7565b90509250929050565b600080600080600060a086880312156113f257600080fd5b6113fb86610ec7565b945061140960208701610ec7565b93506040860135925060608601359150608086013567ffffffffffffffff8111156111a557600080fd5b60006020828403121561144557600080fd5b610f4082610ec7565b600181811c9082168061146257607f821691505b60208210810361148257634e487b7160e01b600052602260045260246000fd5b50919050565b634e487b7160e01b600052603260045260246000fd5b6080815260006114b16080830187610f60565b6020830195909552506040810192909252606090910152919050565b601f82111561151457806000526020600020601f840160051c810160208510156114f45750805b601f840160051c820191505b8181101561079e5760008155600101611500565b505050565b815167ffffffffffffffff81111561153357611533610fb9565b61154781611541845461144e565b846114cd565b6020601f82116001811461157b57600083156115635750848201515b600019600385901b1c1916600184901b17845561079e565b600084815260208120601f198516915b828110156115ab578785015182556020948501946001909201910161158b565b50848210156115c95786840151600019600387901b60f8161c191681555b50505050600190811b01905550565b8082018082111561026a57634e487b7160e01b600052601160045260246000fd5b60408152600061160c6040830185611287565b828103602084015261161e8185611287565b95945050505050565b6001600160a01b03861681526001600160a01b038516602082015283604082015282606082015260a06080820152600061166460a0830184610f60565b979650505050505050565b60006020828403121561168157600080fd5b8151610f4081610f0d565b6001600160a01b03861681526001600160a01b038516602082015260a0604082015260006116bd60a0830186611287565b82810360608401526116cf8186611287565b905082810360808401526116e38185610f60565b9897505050505050505056fea2646970667358221220e5b447474c126b6ff87c3ccd49589d140c126df89f0e831dc1e3c58e8f0446a064736f6c634300081d0033",
  "linkReferences": {},
  "deployedLinkReferences": {}
}